{
  "_format": "hh-sol-artifact-1",
  "contractName": "NeuromintNFT",
  "sourceName": "contracts/NeuromintNFT.sol",
  "abi": [
    {
      "inputs": [],
      "stateMutability": "nonpayable",
      "type": "constructor"
    },
    {
      "inputs": [
        {
          "internalType": "address",
          "name": "sender",
          "type": "address"
        },
        {
          "internalType": "uint256",
          "name": "tokenId",
          "type": "uint256"
        },
        {
          "internalType": "address",
          "name": "owner",
          "type": "address"
        }
      ],
      "name": "ERC721IncorrectOwner",
      "type": "error"
    },
    {
      "inputs": [
        {
          "internalType": "address",
          "name": "operator",
          "type": "address"
        },
        {
          "internalType": "uint256",
          "name": "tokenId",
          "type": "uint256"
        }
      ],
      "name": "ERC721InsufficientApproval",
      "type": "error"
    },
    {
      "inputs": [
        {
          "internalType": "address",
          "name": "approver",
          "type": "address"
        }
      ],
      "name": "ERC721InvalidApprover",
      "type": "error"
    },
    {
      "inputs": [
        {
          "internalType": "address",
          "name": "operator",
          "type": "address"
        }
      ],
      "name": "ERC721InvalidOperator",
      "type": "error"
    },
    {
      "inputs": [
        {
          "internalType": "address",
          "name": "owner",
          "type": "address"
        }
      ],
      "name": "ERC721InvalidOwner",
      "type": "error"
    },
    {
      "inputs": [
        {
          "internalType": "address",
          "name": "receiver",
          "type": "address"
        }
      ],
      "name": "ERC721InvalidReceiver",
      "type": "error"
    },
    {
      "inputs": [
        {
          "internalType": "address",
          "name": "sender",
          "type": "address"
        }
      ],
      "name": "ERC721InvalidSender",
      "type": "error"
    },
    {
      "inputs": [
        {
          "internalType": "uint256",
          "name": "tokenId",
          "type": "uint256"
        }
      ],
      "name": "ERC721NonexistentToken",
      "type": "error"
    },
    {
      "inputs": [
        {
          "internalType": "address",
          "name": "owner",
          "type": "address"
        }
      ],
      "name": "OwnableInvalidOwner",
      "type": "error"
    },
    {
      "inputs": [
        {
          "internalType": "address",
          "name": "account",
          "type": "address"
        }
      ],
      "name": "OwnableUnauthorizedAccount",
      "type": "error"
    },
    {
      "anonymous": false,
      "inputs": [
        {
          "indexed": true,
          "internalType": "address",
          "name": "owner",
          "type": "address"
        },
        {
          "indexed": true,
          "internalType": "address",
          "name": "approved",
          "type": "address"
        },
        {
          "indexed": true,
          "internalType": "uint256",
          "name": "tokenId",
          "type": "uint256"
        }
      ],
      "name": "Approval",
      "type": "event"
    },
    {
      "anonymous": false,
      "inputs": [
        {
          "indexed": true,
          "internalType": "address",
          "name": "owner",
          "type": "address"
        },
        {
          "indexed": true,
          "internalType": "address",
          "name": "operator",
          "type": "address"
        },
        {
          "indexed": false,
          "internalType": "bool",
          "name": "approved",
          "type": "bool"
        }
      ],
      "name": "ApprovalForAll",
      "type": "event"
    },
    {
      "anonymous": false,
      "inputs": [
        {
          "indexed": false,
          "internalType": "uint256",
          "name": "_fromTokenId",
          "type": "uint256"
        },
        {
          "indexed": false,
          "internalType": "uint256",
          "name": "_toTokenId",
          "type": "uint256"
        }
      ],
      "name": "BatchMetadataUpdate",
      "type": "event"
    },
    {
      "anonymous": false,
      "inputs": [
        {
          "indexed": false,
          "internalType": "uint256",
          "name": "_tokenId",
          "type": "uint256"
        }
      ],
      "name": "MetadataUpdate",
      "type": "event"
    },
    {
      "anonymous": false,
      "inputs": [
        {
          "indexed": true,
          "internalType": "address",
          "name": "previousOwner",
          "type": "address"
        },
        {
          "indexed": true,
          "internalType": "address",
          "name": "newOwner",
          "type": "address"
        }
      ],
      "name": "OwnershipTransferred",
      "type": "event"
    },
    {
      "anonymous": false,
      "inputs": [
        {
          "indexed": true,
          "internalType": "address",
          "name": "from",
          "type": "address"
        },
        {
          "indexed": true,
          "internalType": "address",
          "name": "to",
          "type": "address"
        },
        {
          "indexed": true,
          "internalType": "uint256",
          "name": "tokenId",
          "type": "uint256"
        }
      ],
      "name": "Transfer",
      "type": "event"
    },
    {
      "inputs": [
        {
          "internalType": "uint256",
          "name": "",
          "type": "uint256"
        }
      ],
      "name": "allNFTs",
      "outputs": [
        {
          "internalType": "address",
          "name": "owner",
          "type": "address"
        },
        {
          "internalType": "uint256",
          "name": "focusScore",
          "type": "uint256"
        },
        {
          "internalType": "string",
          "name": "imageURI",
          "type": "string"
        }
      ],
      "stateMutability": "view",
      "type": "function"
    },
    {
      "inputs": [
        {
          "internalType": "address",
          "name": "to",
          "type": "address"
        },
        {
          "internalType": "uint256",
          "name": "tokenId",
          "type": "uint256"
        }
      ],
      "name": "approve",
      "outputs": [],
      "stateMutability": "nonpayable",
      "type": "function"
    },
    {
      "inputs": [
        {
          "internalType": "address",
          "name": "owner",
          "type": "address"
        }
      ],
      "name": "balanceOf",
      "outputs": [
        {
          "internalType": "uint256",
          "name": "",
          "type": "uint256"
        }
      ],
      "stateMutability": "view",
      "type": "function"
    },
    {
      "inputs": [],
      "name": "getAllNFTsData",
      "outputs": [
        {
          "components": [
            {
              "internalType": "address",
              "name": "owner",
              "type": "address"
            },
            {
              "internalType": "uint256",
              "name": "focusScore",
              "type": "uint256"
            },
            {
              "internalType": "string",
              "name": "imageURI",
              "type": "string"
            }
          ],
          "internalType": "struct NeuromintNFT.NFTMetadata[]",
          "name": "",
          "type": "tuple[]"
        }
      ],
      "stateMutability": "view",
      "type": "function"
    },
    {
      "inputs": [
        {
          "internalType": "uint256",
          "name": "tokenId",
          "type": "uint256"
        }
      ],
      "name": "getApproved",
      "outputs": [
        {
          "internalType": "address",
          "name": "",
          "type": "address"
        }
      ],
      "stateMutability": "view",
      "type": "function"
    },
    {
      "inputs": [
        {
          "internalType": "address",
          "name": "owner",
          "type": "address"
        },
        {
          "internalType": "address",
          "name": "operator",
          "type": "address"
        }
      ],
      "name": "isApprovedForAll",
      "outputs": [
        {
          "internalType": "bool",
          "name": "",
          "type": "bool"
        }
      ],
      "stateMutability": "view",
      "type": "function"
    },
    {
      "inputs": [
        {
          "internalType": "string",
          "name": "imageBase64",
          "type": "string"
        },
        {
          "internalType": "uint256",
          "name": "focusScore",
          "type": "uint256"
        }
      ],
      "name": "mintNFT",
      "outputs": [],
      "stateMutability": "nonpayable",
      "type": "function"
    },
    {
      "inputs": [],
      "name": "name",
      "outputs": [
        {
          "internalType": "string",
          "name": "",
          "type": "string"
        }
      ],
      "stateMutability": "view",
      "type": "function"
    },
    {
      "inputs": [],
      "name": "owner",
      "outputs": [
        {
          "internalType": "address",
          "name": "",
          "type": "address"
        }
      ],
      "stateMutability": "view",
      "type": "function"
    },
    {
      "inputs": [
        {
          "internalType": "uint256",
          "name": "tokenId",
          "type": "uint256"
        }
      ],
      "name": "ownerOf",
      "outputs": [
        {
          "internalType": "address",
          "name": "",
          "type": "address"
        }
      ],
      "stateMutability": "view",
      "type": "function"
    },
    {
      "inputs": [],
      "name": "renounceOwnership",
      "outputs": [],
      "stateMutability": "nonpayable",
      "type": "function"
    },
    {
      "inputs": [
        {
          "internalType": "address",
          "name": "from",
          "type": "address"
        },
        {
          "internalType": "address",
          "name": "to",
          "type": "address"
        },
        {
          "internalType": "uint256",
          "name": "tokenId",
          "type": "uint256"
        }
      ],
      "name": "safeTransferFrom",
      "outputs": [],
      "stateMutability": "nonpayable",
      "type": "function"
    },
    {
      "inputs": [
        {
          "internalType": "address",
          "name": "from",
          "type": "address"
        },
        {
          "internalType": "address",
          "name": "to",
          "type": "address"
        },
        {
          "internalType": "uint256",
          "name": "tokenId",
          "type": "uint256"
        },
        {
          "internalType": "bytes",
          "name": "data",
          "type": "bytes"
        }
      ],
      "name": "safeTransferFrom",
      "outputs": [],
      "stateMutability": "nonpayable",
      "type": "function"
    },
    {
      "inputs": [
        {
          "internalType": "address",
          "name": "operator",
          "type": "address"
        },
        {
          "internalType": "bool",
          "name": "approved",
          "type": "bool"
        }
      ],
      "name": "setApprovalForAll",
      "outputs": [],
      "stateMutability": "nonpayable",
      "type": "function"
    },
    {
      "inputs": [
        {
          "internalType": "bytes4",
          "name": "interfaceId",
          "type": "bytes4"
        }
      ],
      "name": "supportsInterface",
      "outputs": [
        {
          "internalType": "bool",
          "name": "",
          "type": "bool"
        }
      ],
      "stateMutability": "view",
      "type": "function"
    },
    {
      "inputs": [],
      "name": "symbol",
      "outputs": [
        {
          "internalType": "string",
          "name": "",
          "type": "string"
        }
      ],
      "stateMutability": "view",
      "type": "function"
    },
    {
      "inputs": [],
      "name": "tokenCounter",
      "outputs": [
        {
          "internalType": "uint256",
          "name": "",
          "type": "uint256"
        }
      ],
      "stateMutability": "view",
      "type": "function"
    },
    {
      "inputs": [
        {
          "internalType": "uint256",
          "name": "tokenId",
          "type": "uint256"
        }
      ],
      "name": "tokenURI",
      "outputs": [
        {
          "internalType": "string",
          "name": "",
          "type": "string"
        }
      ],
      "stateMutability": "view",
      "type": "function"
    },
    {
      "inputs": [
        {
          "internalType": "address",
          "name": "from",
          "type": "address"
        },
        {
          "internalType": "address",
          "name": "to",
          "type": "address"
        },
        {
          "internalType": "uint256",
          "name": "tokenId",
          "type": "uint256"
        }
      ],
      "name": "transferFrom",
      "outputs": [],
      "stateMutability": "nonpayable",
      "type": "function"
    },
    {
      "inputs": [
        {
          "internalType": "address",
          "name": "newOwner",
          "type": "address"
        }
      ],
      "name": "transferOwnership",
      "outputs": [],
      "stateMutability": "nonpayable",
      "type": "function"
    }
  ],
  "bytecode": "0x60806040523480156200001157600080fd5b50336040518060400160405280600981526020017f4e6575726f7361757200000000000000000000000000000000000000000000008152506040518060400160405280600481526020017f4e4d4e5400000000000000000000000000000000000000000000000000000000815250816000908162000090919062000472565b508060019081620000a2919062000472565b505050600073ffffffffffffffffffffffffffffffffffffffff168173ffffffffffffffffffffffffffffffffffffffff16036200011a5760006040517f1e4fbdf70000000000000000000000000000000000000000000000000000000081526004016200011191906200059e565b60405180910390fd5b6200012b816200013260201b60201c565b50620005bb565b6000600760009054906101000a900473ffffffffffffffffffffffffffffffffffffffff16905081600760006101000a81548173ffffffffffffffffffffffffffffffffffffffff021916908373ffffffffffffffffffffffffffffffffffffffff1602179055508173ffffffffffffffffffffffffffffffffffffffff168173ffffffffffffffffffffffffffffffffffffffff167f8be0079c531659141344cd1fd0a4f28419497f9722a3daafe3b4186f6b6457e060405160405180910390a35050565b600081519050919050565b7f4e487b7100000000000000000000000000000000000000000000000000000000600052604160045260246000fd5b7f4e487b7100000000000000000000000000000000000000000000000000000000600052602260045260246000fd5b600060028204905060018216806200027a57607f821691505b60208210810362000290576200028f62000232565b5b50919050565b60008190508160005260206000209050919050565b60006020601f8301049050919050565b600082821b905092915050565b600060088302620002fa7fffffffffffffffffffffffffffffffffffffffffffffffffffffffffffffffff82620002bb565b620003068683620002bb565b95508019841693508086168417925050509392505050565b6000819050919050565b6000819050919050565b6000620003536200034d62000347846200031e565b62000328565b6200031e565b9050919050565b6000819050919050565b6200036f8362000332565b620003876200037e826200035a565b848454620002c8565b825550505050565b600090565b6200039e6200038f565b620003ab81848462000364565b505050565b5b81811015620003d357620003c760008262000394565b600181019050620003b1565b5050565b601f8211156200042257620003ec8162000296565b620003f784620002ab565b8101602085101562000407578190505b6200041f6200041685620002ab565b830182620003b0565b50505b505050565b600082821c905092915050565b6000620004476000198460080262000427565b1980831691505092915050565b600062000462838362000434565b9150826002028217905092915050565b6200047d82620001f8565b67ffffffffffffffff81111562000499576200049862000203565b5b620004a5825462000261565b620004b2828285620003d7565b600060209050601f831160018114620004ea5760008415620004d5578287015190505b620004e1858262000454565b86555062000551565b601f198416620004fa8662000296565b60005b828110156200052457848901518255600182019150602085019450602081019050620004fd565b8683101562000544578489015162000540601f89168262000434565b8355505b6001600288020188555050505b505050505050565b600073ffffffffffffffffffffffffffffffffffffffff82169050919050565b6000620005868262000559565b9050919050565b620005988162000579565b82525050565b6000602082019050620005b560008301846200058d565b92915050565b6131ed80620005cb6000396000f3fe608060405234801561001057600080fd5b506004361061012c5760003560e01c8063715018a6116100ad578063bf162d6711610071578063bf162d671461031b578063c87b56dd1461034d578063d082e3811461037d578063e985e9c51461039b578063f2fde38b146103cb5761012c565b8063715018a61461029d5780638da5cb5b146102a757806395d89b41146102c5578063a22cb465146102e3578063b88d4fde146102ff5761012c565b806342842e0e116100f457806342842e0e146101e75780635afa3a72146102035780635cce00ff1461021f5780636352211e1461023d57806370a082311461026d5761012c565b806301ffc9a71461013157806306fdde0314610161578063081812fc1461017f578063095ea7b3146101af57806323b872dd146101cb575b600080fd5b61014b60048036038101906101469190612076565b6103e7565b60405161015891906120be565b60405180910390f35b610169610448565b6040516101769190612169565b60405180910390f35b610199600480360381019061019491906121c1565b6104da565b6040516101a6919061222f565b60405180910390f35b6101c960048036038101906101c49190612276565b6104f6565b005b6101e560048036038101906101e091906122b6565b61050c565b005b61020160048036038101906101fc91906122b6565b61060e565b005b61021d6004803603810190610218919061243e565b61062e565b005b61022761073a565b6040516102349190612614565b60405180910390f35b610257600480360381019061025291906121c1565b61088b565b604051610264919061222f565b60405180910390f35b61028760048036038101906102829190612636565b61089d565b6040516102949190612672565b60405180910390f35b6102a5610957565b005b6102af61096b565b6040516102bc919061222f565b60405180910390f35b6102cd610995565b6040516102da9190612169565b60405180910390f35b6102fd60048036038101906102f891906126b9565b610a27565b005b6103196004803603810190610314919061279a565b610a3d565b005b610335600480360381019061033091906121c1565b610a62565b6040516103449392919061281d565b60405180910390f35b610367600480360381019061036291906121c1565b610b44565b6040516103749190612169565b60405180910390f35b610385610c57565b6040516103929190612672565b60405180910390f35b6103b560048036038101906103b0919061285b565b610c5d565b6040516103c291906120be565b60405180910390f35b6103e560048036038101906103e09190612636565b610cf1565b005b6000634906490660e01b7bffffffffffffffffffffffffffffffffffffffffffffffffffffffff1916827bffffffffffffffffffffffffffffffffffffffffffffffffffffffff19161480610441575061044082610d77565b5b9050919050565b606060008054610457906128ca565b80601f0160208091040260200160405190810160405280929190818152602001828054610483906128ca565b80156104d05780601f106104a5576101008083540402835291602001916104d0565b820191906000526020600020905b8154815290600101906020018083116104b357829003601f168201915b5050505050905090565b60006104e582610e59565b506104ef82610ee1565b9050919050565b6105088282610503610f1e565b610f26565b5050565b600073ffffffffffffffffffffffffffffffffffffffff168273ffffffffffffffffffffffffffffffffffffffff160361057e5760006040517f64a0ae92000000000000000000000000000000000000000000000000000000008152600401610575919061222f565b60405180910390fd5b6000610592838361058d610f1e565b610f38565b90508373ffffffffffffffffffffffffffffffffffffffff168173ffffffffffffffffffffffffffffffffffffffff1614610608578382826040517f64283d7b0000000000000000000000000000000000000000000000000000000081526004016105ff939291906128fb565b60405180910390fd5b50505050565b61062983838360405180602001604052806000815250610a3d565b505050565b6000600854905061063f3382611152565b600061064b8484611170565b905061065782826111d1565b600960405180606001604052803373ffffffffffffffffffffffffffffffffffffffff16815260200185815260200186815250908060018154018082558091505060019003906000526020600020906003020160009091909190915060008201518160000160006101000a81548173ffffffffffffffffffffffffffffffffffffffff021916908373ffffffffffffffffffffffffffffffffffffffff1602179055506020820151816001015560408201518160020190816107199190612ade565b5050506008600081548092919061072f90612bdf565b919050555050505050565b60606009805480602002602001604051908101604052809291908181526020016000905b8282101561088257838290600052602060002090600302016040518060600160405290816000820160009054906101000a900473ffffffffffffffffffffffffffffffffffffffff1673ffffffffffffffffffffffffffffffffffffffff1673ffffffffffffffffffffffffffffffffffffffff168152602001600182015481526020016002820180546107f1906128ca565b80601f016020809104026020016040519081016040528092919081815260200182805461081d906128ca565b801561086a5780601f1061083f5761010080835404028352916020019161086a565b820191906000526020600020905b81548152906001019060200180831161084d57829003601f168201915b5050505050815250508152602001906001019061075e565b50505050905090565b600061089682610e59565b9050919050565b60008073ffffffffffffffffffffffffffffffffffffffff168273ffffffffffffffffffffffffffffffffffffffff16036109105760006040517f89c62b64000000000000000000000000000000000000000000000000000000008152600401610907919061222f565b60405180910390fd5b600360008373ffffffffffffffffffffffffffffffffffffffff1673ffffffffffffffffffffffffffffffffffffffff168152602001908152602001600020549050919050565b61095f61122d565b61096960006112b4565b565b6000600760009054906101000a900473ffffffffffffffffffffffffffffffffffffffff16905090565b6060600180546109a4906128ca565b80601f01602080910402602001604051908101604052809291908181526020018280546109d0906128ca565b8015610a1d5780601f106109f257610100808354040283529160200191610a1d565b820191906000526020600020905b815481529060010190602001808311610a0057829003601f168201915b5050505050905090565b610a39610a32610f1e565b838361137a565b5050565b610a4884848461050c565b610a5c610a53610f1e565b858585856114e9565b50505050565b60098181548110610a7257600080fd5b90600052602060002090600302016000915090508060000160009054906101000a900473ffffffffffffffffffffffffffffffffffffffff1690806001015490806002018054610ac1906128ca565b80601f0160208091040260200160405190810160405280929190818152602001828054610aed906128ca565b8015610b3a5780601f10610b0f57610100808354040283529160200191610b3a565b820191906000526020600020905b815481529060010190602001808311610b1d57829003601f168201915b5050505050905083565b6060610b4f82610e59565b506000600660008481526020019081526020016000208054610b70906128ca565b80601f0160208091040260200160405190810160405280929190818152602001828054610b9c906128ca565b8015610be95780601f10610bbe57610100808354040283529160200191610be9565b820191906000526020600020905b815481529060010190602001808311610bcc57829003601f168201915b505050505090506000610bfa61169a565b90506000815103610c0f578192505050610c52565b600082511115610c44578082604051602001610c2c929190612c63565b60405160208183030381529060405292505050610c52565b610c4d846116b1565b925050505b919050565b60085481565b6000600560008473ffffffffffffffffffffffffffffffffffffffff1673ffffffffffffffffffffffffffffffffffffffff16815260200190815260200160002060008373ffffffffffffffffffffffffffffffffffffffff1673ffffffffffffffffffffffffffffffffffffffff16815260200190815260200160002060009054906101000a900460ff16905092915050565b610cf961122d565b600073ffffffffffffffffffffffffffffffffffffffff168173ffffffffffffffffffffffffffffffffffffffff1603610d6b5760006040517f1e4fbdf7000000000000000000000000000000000000000000000000000000008152600401610d62919061222f565b60405180910390fd5b610d74816112b4565b50565b60007f80ac58cd000000000000000000000000000000000000000000000000000000007bffffffffffffffffffffffffffffffffffffffffffffffffffffffff1916827bffffffffffffffffffffffffffffffffffffffffffffffffffffffff19161480610e4257507f5b5e139f000000000000000000000000000000000000000000000000000000007bffffffffffffffffffffffffffffffffffffffffffffffffffffffff1916827bffffffffffffffffffffffffffffffffffffffffffffffffffffffff1916145b80610e525750610e518261171a565b5b9050919050565b600080610e6583611784565b9050600073ffffffffffffffffffffffffffffffffffffffff168173ffffffffffffffffffffffffffffffffffffffff1603610ed857826040517f7e273289000000000000000000000000000000000000000000000000000000008152600401610ecf9190612672565b60405180910390fd5b80915050919050565b60006004600083815260200190815260200160002060009054906101000a900473ffffffffffffffffffffffffffffffffffffffff169050919050565b600033905090565b610f3383838360016117c1565b505050565b600080610f4484611784565b9050600073ffffffffffffffffffffffffffffffffffffffff168373ffffffffffffffffffffffffffffffffffffffff1614610f8657610f85818486611986565b5b600073ffffffffffffffffffffffffffffffffffffffff168173ffffffffffffffffffffffffffffffffffffffff161461101757610fc86000856000806117c1565b6001600360008373ffffffffffffffffffffffffffffffffffffffff1673ffffffffffffffffffffffffffffffffffffffff168152602001908152602001600020600082825403925050819055505b600073ffffffffffffffffffffffffffffffffffffffff168573ffffffffffffffffffffffffffffffffffffffff161461109a576001600360008773ffffffffffffffffffffffffffffffffffffffff1673ffffffffffffffffffffffffffffffffffffffff168152602001908152602001600020600082825401925050819055505b846002600086815260200190815260200160002060006101000a81548173ffffffffffffffffffffffffffffffffffffffff021916908373ffffffffffffffffffffffffffffffffffffffff160217905550838573ffffffffffffffffffffffffffffffffffffffff168273ffffffffffffffffffffffffffffffffffffffff167fddf252ad1be2c89b69c2b068fc378daa952ba7f163c4a11628f55a4df523b3ef60405160405180910390a4809150509392505050565b61116c828260405180602001604052806000815250611a4a565b5050565b606060006111a68461118185611a6e565b604051602001611192929190612ec1565b604051602081830303815290604052611b3c565b9050806040516020016111b99190612f73565b60405160208183030381529060405291505092915050565b806006600084815260200190815260200160002090816111f19190612ade565b507ff8e1a15aba9398e019f0b49df1a4fde98ee17ae345cb5f6b5e2c27f5033e8ce7826040516112219190612672565b60405180910390a15050565b611235610f1e565b73ffffffffffffffffffffffffffffffffffffffff1661125361096b565b73ffffffffffffffffffffffffffffffffffffffff16146112b257611276610f1e565b6040517f118cdaa70000000000000000000000000000000000000000000000000000000081526004016112a9919061222f565b60405180910390fd5b565b6000600760009054906101000a900473ffffffffffffffffffffffffffffffffffffffff16905081600760006101000a81548173ffffffffffffffffffffffffffffffffffffffff021916908373ffffffffffffffffffffffffffffffffffffffff1602179055508173ffffffffffffffffffffffffffffffffffffffff168173ffffffffffffffffffffffffffffffffffffffff167f8be0079c531659141344cd1fd0a4f28419497f9722a3daafe3b4186f6b6457e060405160405180910390a35050565b600073ffffffffffffffffffffffffffffffffffffffff168273ffffffffffffffffffffffffffffffffffffffff16036113eb57816040517f5b08ba180000000000000000000000000000000000000000000000000000000081526004016113e2919061222f565b60405180910390fd5b80600560008573ffffffffffffffffffffffffffffffffffffffff1673ffffffffffffffffffffffffffffffffffffffff16815260200190815260200160002060008473ffffffffffffffffffffffffffffffffffffffff1673ffffffffffffffffffffffffffffffffffffffff16815260200190815260200160002060006101000a81548160ff0219169083151502179055508173ffffffffffffffffffffffffffffffffffffffff168373ffffffffffffffffffffffffffffffffffffffff167f17307eab39ab6107e8899845ad3d59bd9653f200f220920489ca2b5937696c31836040516114dc91906120be565b60405180910390a3505050565b60008373ffffffffffffffffffffffffffffffffffffffff163b1115611693578273ffffffffffffffffffffffffffffffffffffffff1663150b7a02868685856040518563ffffffff1660e01b81526004016115489493929190612fea565b6020604051808303816000875af192505050801561158457506040513d601f19601f82011682018060405250810190611581919061304b565b60015b611608573d80600081146115b4576040519150601f19603f3d011682016040523d82523d6000602084013e6115b9565b606091505b50600081510361160057836040517f64a0ae920000000000000000000000000000000000000000000000000000000081526004016115f7919061222f565b60405180910390fd5b805181602001fd5b63150b7a0260e01b7bffffffffffffffffffffffffffffffffffffffffffffffffffffffff1916817bffffffffffffffffffffffffffffffffffffffffffffffffffffffff19161461169157836040517f64a0ae92000000000000000000000000000000000000000000000000000000008152600401611688919061222f565b60405180910390fd5b505b5050505050565b606060405180602001604052806000815250905090565b60606116bc82610e59565b5060006116c761169a565b905060008151116116e75760405180602001604052806000815250611712565b806116f184611a6e565b604051602001611702929190612c63565b6040516020818303038152906040525b915050919050565b60007f01ffc9a7000000000000000000000000000000000000000000000000000000007bffffffffffffffffffffffffffffffffffffffffffffffffffffffff1916827bffffffffffffffffffffffffffffffffffffffffffffffffffffffff1916149050919050565b60006002600083815260200190815260200160002060009054906101000a900473ffffffffffffffffffffffffffffffffffffffff169050919050565b80806117fa5750600073ffffffffffffffffffffffffffffffffffffffff168273ffffffffffffffffffffffffffffffffffffffff1614155b1561192e57600061180a84610e59565b9050600073ffffffffffffffffffffffffffffffffffffffff168373ffffffffffffffffffffffffffffffffffffffff161415801561187557508273ffffffffffffffffffffffffffffffffffffffff168173ffffffffffffffffffffffffffffffffffffffff1614155b801561188857506118868184610c5d565b155b156118ca57826040517fa9fbf51f0000000000000000000000000000000000000000000000000000000081526004016118c1919061222f565b60405180910390fd5b811561192c57838573ffffffffffffffffffffffffffffffffffffffff168273ffffffffffffffffffffffffffffffffffffffff167f8c5be1e5ebec7d5bd14f71427d1e84f3dd0314c0f7b2291e5b200ac8c7c3b92560405160405180910390a45b505b836004600085815260200190815260200160002060006101000a81548173ffffffffffffffffffffffffffffffffffffffff021916908373ffffffffffffffffffffffffffffffffffffffff16021790555050505050565b611991838383611b69565b611a4557600073ffffffffffffffffffffffffffffffffffffffff168373ffffffffffffffffffffffffffffffffffffffff1603611a0657806040517f7e2732890000000000000000000000000000000000000000000000000000000081526004016119fd9190612672565b60405180910390fd5b81816040517f177e802f000000000000000000000000000000000000000000000000000000008152600401611a3c929190613078565b60405180910390fd5b505050565b611a548383611c2a565b611a69611a5f610f1e565b60008585856114e9565b505050565b606060006001611a7d84611d23565b01905060008167ffffffffffffffff811115611a9c57611a9b612313565b5b6040519080825280601f01601f191660200182016040528015611ace5781602001600182028036833780820191505090505b509050600082602001820190505b600115611b31578080600190039150507f3031323334353637383961626364656600000000000000000000000000000000600a86061a8153600a8581611b2557611b246130a1565b5b04945060008503611adc575b819350505050919050565b6060611b6282604051806060016040528060408152602001613178604091396001611e76565b9050919050565b60008073ffffffffffffffffffffffffffffffffffffffff168373ffffffffffffffffffffffffffffffffffffffff1614158015611c2157508273ffffffffffffffffffffffffffffffffffffffff168473ffffffffffffffffffffffffffffffffffffffff161480611be25750611be18484610c5d565b5b80611c2057508273ffffffffffffffffffffffffffffffffffffffff16611c0883610ee1565b73ffffffffffffffffffffffffffffffffffffffff16145b5b90509392505050565b600073ffffffffffffffffffffffffffffffffffffffff168273ffffffffffffffffffffffffffffffffffffffff1603611c9c5760006040517f64a0ae92000000000000000000000000000000000000000000000000000000008152600401611c93919061222f565b60405180910390fd5b6000611caa83836000610f38565b9050600073ffffffffffffffffffffffffffffffffffffffff168173ffffffffffffffffffffffffffffffffffffffff1614611d1e5760006040517f73c6ac6e000000000000000000000000000000000000000000000000000000008152600401611d15919061222f565b60405180910390fd5b505050565b600080600090507a184f03e93ff9f4daa797ed6e38ed64bf6a1f0100000000000000008310611d81577a184f03e93ff9f4daa797ed6e38ed64bf6a1f0100000000000000008381611d7757611d766130a1565b5b0492506040810190505b6d04ee2d6d415b85acef81000000008310611dbe576d04ee2d6d415b85acef81000000008381611db457611db36130a1565b5b0492506020810190505b662386f26fc100008310611ded57662386f26fc100008381611de357611de26130a1565b5b0492506010810190505b6305f5e1008310611e16576305f5e1008381611e0c57611e0b6130a1565b5b0492506008810190505b6127108310611e3b576127108381611e3157611e306130a1565b5b0492506004810190505b60648310611e5e5760648381611e5457611e536130a1565b5b0492506002810190505b600a8310611e6d576001810190505b80915050919050565b60606000845103611e9857604051806020016040528060008152509050612003565b600082611eca576003600286516004611eb191906130d0565b611ebb9190613112565b611ec59190613146565b611ef1565b600360028651611eda9190613112565b611ee49190613146565b6004611ef091906130d0565b5b905060008167ffffffffffffffff811115611f0f57611f0e612313565b5b6040519080825280601f01601f191660200182016040528015611f415781602001600182028036833780820191505090505b50905060018501602082018788518901602081018051600082525b82841015611fb7576003840193508351603f8160121c168701518653600186019550603f81600c1c168701518653600186019550603f8160061c168701518653600186019550603f8116870151865360018601955050611f5c565b8082528915611ff75760038c510660018114611fda5760028114611fed57611ff5565b603d6001870353603d6002870353611ff5565b603d60018703535b505b50505050505080925050505b9392505050565b6000604051905090565b600080fd5b600080fd5b60007fffffffff0000000000000000000000000000000000000000000000000000000082169050919050565b6120538161201e565b811461205e57600080fd5b50565b6000813590506120708161204a565b92915050565b60006020828403121561208c5761208b612014565b5b600061209a84828501612061565b91505092915050565b60008115159050919050565b6120b8816120a3565b82525050565b60006020820190506120d360008301846120af565b92915050565b600081519050919050565b600082825260208201905092915050565b60005b838110156121135780820151818401526020810190506120f8565b60008484015250505050565b6000601f19601f8301169050919050565b600061213b826120d9565b61214581856120e4565b93506121558185602086016120f5565b61215e8161211f565b840191505092915050565b600060208201905081810360008301526121838184612130565b905092915050565b6000819050919050565b61219e8161218b565b81146121a957600080fd5b50565b6000813590506121bb81612195565b92915050565b6000602082840312156121d7576121d6612014565b5b60006121e5848285016121ac565b91505092915050565b600073ffffffffffffffffffffffffffffffffffffffff82169050919050565b6000612219826121ee565b9050919050565b6122298161220e565b82525050565b60006020820190506122446000830184612220565b92915050565b6122538161220e565b811461225e57600080fd5b50565b6000813590506122708161224a565b92915050565b6000806040838503121561228d5761228c612014565b5b600061229b85828601612261565b92505060206122ac858286016121ac565b9150509250929050565b6000806000606084860312156122cf576122ce612014565b5b60006122dd86828701612261565b93505060206122ee86828701612261565b92505060406122ff868287016121ac565b9150509250925092565b600080fd5b600080fd5b7f4e487b7100000000000000000000000000000000000000000000000000000000600052604160045260246000fd5b61234b8261211f565b810181811067ffffffffffffffff8211171561236a57612369612313565b5b80604052505050565b600061237d61200a565b90506123898282612342565b919050565b600067ffffffffffffffff8211156123a9576123a8612313565b5b6123b28261211f565b9050602081019050919050565b82818337600083830152505050565b60006123e16123dc8461238e565b612373565b9050828152602081018484840111156123fd576123fc61230e565b5b6124088482856123bf565b509392505050565b600082601f83011261242557612424612309565b5b81356124358482602086016123ce565b91505092915050565b6000806040838503121561245557612454612014565b5b600083013567ffffffffffffffff81111561247357612472612019565b5b61247f85828601612410565b9250506020612490858286016121ac565b9150509250929050565b600081519050919050565b600082825260208201905092915050565b6000819050602082019050919050565b6124cf8161220e565b82525050565b6124de8161218b565b82525050565b600082825260208201905092915050565b6000612500826120d9565b61250a81856124e4565b935061251a8185602086016120f5565b6125238161211f565b840191505092915050565b600060608301600083015161254660008601826124c6565b50602083015161255960208601826124d5565b506040830151848203604086015261257182826124f5565b9150508091505092915050565b600061258a838361252e565b905092915050565b6000602082019050919050565b60006125aa8261249a565b6125b481856124a5565b9350836020820285016125c6856124b6565b8060005b8581101561260257848403895281516125e3858261257e565b94506125ee83612592565b925060208a019950506001810190506125ca565b50829750879550505050505092915050565b6000602082019050818103600083015261262e818461259f565b905092915050565b60006020828403121561264c5761264b612014565b5b600061265a84828501612261565b91505092915050565b61266c8161218b565b82525050565b60006020820190506126876000830184612663565b92915050565b612696816120a3565b81146126a157600080fd5b50565b6000813590506126b38161268d565b92915050565b600080604083850312156126d0576126cf612014565b5b60006126de85828601612261565b92505060206126ef858286016126a4565b9150509250929050565b600067ffffffffffffffff82111561271457612713612313565b5b61271d8261211f565b9050602081019050919050565b600061273d612738846126f9565b612373565b9050828152602081018484840111156127595761275861230e565b5b6127648482856123bf565b509392505050565b600082601f83011261278157612780612309565b5b813561279184826020860161272a565b91505092915050565b600080600080608085870312156127b4576127b3612014565b5b60006127c287828801612261565b94505060206127d387828801612261565b93505060406127e4878288016121ac565b925050606085013567ffffffffffffffff81111561280557612804612019565b5b6128118782880161276c565b91505092959194509250565b60006060820190506128326000830186612220565b61283f6020830185612663565b81810360408301526128518184612130565b9050949350505050565b6000806040838503121561287257612871612014565b5b600061288085828601612261565b925050602061289185828601612261565b9150509250929050565b7f4e487b7100000000000000000000000000000000000000000000000000000000600052602260045260246000fd5b600060028204905060018216806128e257607f821691505b6020821081036128f5576128f461289b565b5b50919050565b60006060820190506129106000830186612220565b61291d6020830185612663565b61292a6040830184612220565b949350505050565b60008190508160005260206000209050919050565b60006020601f8301049050919050565b600082821b905092915050565b6000600883026129947fffffffffffffffffffffffffffffffffffffffffffffffffffffffffffffffff82612957565b61299e8683612957565b95508019841693508086168417925050509392505050565b6000819050919050565b60006129db6129d66129d18461218b565b6129b6565b61218b565b9050919050565b6000819050919050565b6129f5836129c0565b612a09612a01826129e2565b848454612964565b825550505050565b600090565b612a1e612a11565b612a298184846129ec565b505050565b5b81811015612a4d57612a42600082612a16565b600181019050612a2f565b5050565b601f821115612a9257612a6381612932565b612a6c84612947565b81016020851015612a7b578190505b612a8f612a8785612947565b830182612a2e565b50505b505050565b600082821c905092915050565b6000612ab560001984600802612a97565b1980831691505092915050565b6000612ace8383612aa4565b9150826002028217905092915050565b612ae7826120d9565b67ffffffffffffffff811115612b0057612aff612313565b5b612b0a82546128ca565b612b15828285612a51565b600060209050601f831160018114612b485760008415612b36578287015190505b612b408582612ac2565b865550612ba8565b601f198416612b5686612932565b60005b82811015612b7e57848901518255600182019150602085019450602081019050612b59565b86831015612b9b5784890151612b97601f891682612aa4565b8355505b6001600288020188555050505b505050505050565b7f4e487b7100000000000000000000000000000000000000000000000000000000600052601160045260246000fd5b6000612bea8261218b565b91507fffffffffffffffffffffffffffffffffffffffffffffffffffffffffffffffff8203612c1c57612c1b612bb0565b5b600182019050919050565b600081905092915050565b6000612c3d826120d9565b612c478185612c27565b9350612c578185602086016120f5565b80840191505092915050565b6000612c6f8285612c32565b9150612c7b8284612c32565b91508190509392505050565b7f7b226e616d65223a20224e6575726f73617572204e4654222c20000000000000600082015250565b6000612cbd601a83612c27565b9150612cc882612c87565b601a82019050919050565b7f226465736372697074696f6e223a202241204e6575726f73617572204e46542060008201527f7769746820612062696720627261696e20616e64206120666f6375732073636f60208201527f7265222c20000000000000000000000000000000000000000000000000000000604082015250565b6000612d55604583612c27565b9150612d6082612cd3565b604582019050919050565b7f22696d616765223a2022646174613a696d6167652f706e673b6261736536342c600082015250565b6000612da1602083612c27565b9150612dac82612d6b565b602082019050919050565b7f222c200000000000000000000000000000000000000000000000000000000000600082015250565b6000612ded600383612c27565b9150612df882612db7565b600382019050919050565b7f2261747472696275746573223a205b7b2274726169745f74797065223a20224660008201527f6f6375732053636f7265222c202276616c7565223a2022000000000000000000602082015250565b6000612e5f603783612c27565b9150612e6a82612e03565b603782019050919050565b7f227d5d7d00000000000000000000000000000000000000000000000000000000600082015250565b6000612eab600483612c27565b9150612eb682612e75565b600482019050919050565b6000612ecc82612cb0565b9150612ed782612d48565b9150612ee282612d94565b9150612eee8285612c32565b9150612ef982612de0565b9150612f0482612e52565b9150612f108284612c32565b9150612f1b82612e9e565b91508190509392505050565b7f646174613a6170706c69636174696f6e2f6a736f6e3b6261736536342c000000600082015250565b6000612f5d601d83612c27565b9150612f6882612f27565b601d82019050919050565b6000612f7e82612f50565b9150612f8a8284612c32565b915081905092915050565b600081519050919050565b600082825260208201905092915050565b6000612fbc82612f95565b612fc68185612fa0565b9350612fd68185602086016120f5565b612fdf8161211f565b840191505092915050565b6000608082019050612fff6000830187612220565b61300c6020830186612220565b6130196040830185612663565b818103606083015261302b8184612fb1565b905095945050505050565b6000815190506130458161204a565b92915050565b60006020828403121561306157613060612014565b5b600061306f84828501613036565b91505092915050565b600060408201905061308d6000830185612220565b61309a6020830184612663565b9392505050565b7f4e487b7100000000000000000000000000000000000000000000000000000000600052601260045260246000fd5b60006130db8261218b565b91506130e68361218b565b92508282026130f48161218b565b9150828204841483151761310b5761310a612bb0565b5b5092915050565b600061311d8261218b565b91506131288361218b565b92508282019050808211156131405761313f612bb0565b5b92915050565b60006131518261218b565b915061315c8361218b565b92508261316c5761316b6130a1565b5b82820490509291505056fe4142434445464748494a4b4c4d4e4f505152535455565758595a6162636465666768696a6b6c6d6e6f707172737475767778797a303132333435363738392b2fa26469706673582212206d20beb40b95bdc51c8bc60d8cd1108dcadd2154dc83cee529f05d30f79a58a064736f6c63430008180033",
  "linkReferences": {},
  "deployedLinkReferences": {}
}